:100000000C9446000C9465000C9465000C946500FB
:100010000C9465000C9465000C9465000C946500CC
:100020000C9465000C9465000C9465000C946500BC
:100030000C9465000C94DE000C9465000C94650033
:100040000C9465000C9465000C9465000C9465009C
:100050000C9465000C9465000C9465000C9465008C
:100060000C9465000C9465000C9465000C9465007C
:100070000C9465000C9465000C9465000C9465006C
:100080000C9465000C9465000C94650011241FBE4F
:10009000CFEFD0E4DEBFCDBF11E0A0E0B1E0E6E9F4
:1000A000F5E000E00BBF02C007900D92A231B1074E
:1000B000D9F721E0A2E1B1E001C01D92AF31B20752
:1000C000E1F70E9499020C94C9020C940000CF93AE
:1000D000DF9300D01F92CDB7DEB789837B836A831D
:1000E00089818A3031F48A819B81BC018DE00E9434
:1000F000670080EC90E0FC018081882F90E08072A6
:100100009927892BB1F386EC90E02981FC012083AB
:1001100080E090E00F900F900F90DF91CF910895C5
:10012000CF93DF93CDB7DEB781E890E02BE0FC0101
:10013000208388E890E02DE730E0FC0131832083C4
:100140008FE690E022E0FC01208384E890E0FC014F
:100150001182108280910E0190910F01A0911001E7
:10016000B09111018093130190931401A093150194
:10017000B09316018FE590E02FE530E0F901208182
:100180002068FC0120830000DF91CF910895CF9378
:10019000DF93CDB7DEB781E890E0FC01108200006C
:1001A000DF91CF910895CF93DF93CDB7DEB781E094
:1001B000809312010000DF91CF9108951F920F925A
:1001C00000905F000F92112400905B000F922F931C
:1001D0003F934F935F936F937F938F939F93AF93CF
:1001E000BF93EF93FF93CF93DF93CDB7DEB78091AB
:1001F000130190911401A0911501B091160101977E
:10020000A109B1098093130190931401A0931501E2
:10021000B09316018091130190911401A0911501E2
:10022000B0911601892B8A2B8B2B91F40E94D3005D
:1002300080910E0190910F01A0911001B0911101D8
:100240008093130190931401A0931501B0931601AC
:100250000000DF91CF91FF91EF91BF91AF919F91FE
:100260008F917F916F915F914F913F912F910F905F
:1002700000925B000F9000925F000F901F90189506
:10028000CF93DF9300D000D0CDB7DEB769837A83F8
:100290008B839C8389819A81AB81BC8180930E0181
:1002A00090930F01A0931001B093110180910E0162
:1002B00090910F01A0911001B09111018093130151
:1002C00090931401A0931501B093160100000F90B4
:1002D0000F900F900F90DF91CF910895CF93DF9300
:1002E000CDB7DEB780E290E0FC018081882F90E0FE
:1002F000809590959927909318018093170180918C
:100300001D0190911E018130910589F08130910588
:1003100038F082309105C1F0039709F44DC094C0C4
:1003200081E090E090931E0180931D0192C083E0D4
:1003300090E090931C0180931B0182E090E09093E9
:100340001E0180931D0185C08091170190911801B5
:10035000019789F480911B0190911C01039759F436
:1003600010921C0110921B0183E090E090931E01FB
:1003700080931D0120C08091170190911801892B55
:1003800099F480911B0190911C01029769F483E01C
:1003900090E090931C0180931B0182E090E0909389
:1003A0001E0180931D0107C082E090E090931E0122
:1003B00080931D014EC04DC080911701909118018E
:1003C000019709F580911B0190911C010197D9F4C7
:1003D00081E090E090931A018093190185E290E00A
:1003E0002091190130911A01FC01208382E090E0F4
:1003F00090931C0180931B0182E090E090931E017A
:1004000080931D0120C08091170190911801892BC4
:1004100099F480911B0190911C01892B69F481E072
:1004200090E090931C0180931B0183E090E09093F7
:100430001E0180931D0107C083E090E090931E0190
:1004400080931D0106C005C010921E0110921D016F
:10045000000080911D0190911E018130910559F09D
:100460008130910508F45EC08230910599F00397C0
:1004700009F44FC05AC081E090E090931A01809334
:10048000190185E290E02091190130911A01FC01D7
:1004900020834BC08091190190911A01019779F442
:1004A00082E090E090931A018093190185E290E038
:1004B0002091190130911A01FC01208335C08091EF
:1004C000190190911A01029779F484E090E09093D9
:1004D0001A018093190185E290E020911901309171
:1004E0001A01FC01208320C08091190190911A010A
:1004F0000497D1F481E090E090931A018093190160
:1005000085E290E02091190130911A01FC012083CD
:100510000BC085E290E02091190130911A01FC0195
:10052000208303C0000001C000000000DF91CF91D4
:100530000895CF93DF93CDB7DEB781E290E0FC0161
:10054000108282E290E02FEFFC01208384E290E0B1
:100550002FEFFC01208385E290E0FC0110826CE229
:1005600071E080E090E00E9440010E9490001092B3
:100570001E0110921D0185E290E0FC0110820E9494
:100580006E010000809112018823E1F310921201A4
:06059000F6CFF894FFCF46
:1005960000000002000000006700000000000100EB
:0205A600000053
:00000001FF
