:100000000C9446000C9465000C9465000C946500FB
:100010000C9465000C9465000C9465000C946500CC
:100020000C9465000C9465000C9465000C946500BC
:100030000C9465000C94DE000C9465000C94650033
:100040000C9465000C9465000C9465000C9465009C
:100050000C9465000C9465000C9465000C9465008C
:100060000C9465000C9465000C9465000C9465007C
:100070000C9465000C9465000C9465000C9465006C
:100080000C9465000C9465000C94650011241FBE4F
:10009000CFEFD0E4DEBFCDBF11E0A0E0B1E0E4E5FA
:1000A000F7E000E00BBF02C007900D92A231B1074C
:1000B000D9F721E0A2E1B1E001C01D92A332B2075D
:1000C000E1F70E9478030C94A8030C940000CF93EE
:1000D000DF9300D01F92CDB7DEB789837B836A831D
:1000E00089818A3031F48A819B81BC018DE00E9434
:1000F000670080EC90E0FC018081882F90E08072A6
:100100009927892BB1F386EC90E02981FC012083AB
:1001100080E090E00F900F900F90DF91CF910895C5
:10012000CF93DF93CDB7DEB781E890E02BE0FC0101
:10013000208388E890E02DE730E0FC0131832083C4
:100140008FE690E022E0FC01208384E890E0FC014F
:100150001182108280910E0190910F01A0911001E7
:10016000B09111018093130190931401A093150194
:10017000B09316018FE590E02FE530E0F901208182
:100180002068FC0120830000DF91CF910895CF9378
:10019000DF93CDB7DEB781E890E0FC01108200006C
:1001A000DF91CF910895CF93DF93CDB7DEB781E094
:1001B000809312010000DF91CF9108951F920F925A
:1001C00000905F000F92112400905B000F922F931C
:1001D0003F934F935F936F937F938F939F93AF93CF
:1001E000BF93EF93FF93CF93DF93CDB7DEB78091AB
:1001F000130190911401A0911501B091160101977E
:10020000A109B1098093130190931401A0931501E2
:10021000B09316018091130190911401A0911501E2
:10022000B0911601892B8A2B8B2B91F40E94D3005D
:1002300080910E0190910F01A0911001B0911101D8
:100240008093130190931401A0931501B0931601AC
:100250000000DF91CF91FF91EF91BF91AF919F91FE
:100260008F917F916F915F914F913F912F910F905F
:1002700000925B000F9000925F000F901F90189506
:10028000CF93DF9300D000D0CDB7DEB769837A83F8
:100290008B839C8389819A81AB81BC8180930E0181
:1002A00090930F01A0931001B093110180910E0162
:1002B00090910F01A0911001B09111018093130151
:1002C00090931401A0931501B093160100000F90B4
:1002D0000F900F900F90DF91CF910895CF93DF9300
:1002E000CDB7DEB780E290E0FC018081882F90E0FE
:1002F000809590959927909318018093170180918C
:100300002101909122018130910591F08130910578
:1003100040F08230910509F45EC0039709F4AEC045
:1003200025C181E090E0909322018093210128C1B2
:100330008091170190911801892B69F486E090E073
:100340009093200180931F0182E090E0909322011E
:100350008093210110C1809117019091180101979C
:1003600079F41092200110921F0183E090E09093A5
:1003700022018093210110921C0110921B01FBC0ED
:100380008091170190911801029789F481E090E023
:100390009093200180931F0183E090E090932201CD
:1003A0008093210110921E0110921D01E4C08091E2
:1003B000170190911801039709F0DDC082E090E0E9
:1003C0009093200180931F0183E090E0909322019D
:1003D00080932101D0C08091170190911801892B41
:1003E00069F486E090E09093200180931F0182E001
:1003F00090E09093220180932101BFC0809117016A
:1004000090911801019779F41092200110921F0128
:1004100083E090E0909322018093210110921C01CF
:1004200010921B01AAC080911701909118010297A8
:1004300089F481E090E09093200180931F0183E094
:1004400090E0909322018093210110921E0110925E
:100450001D0193C08091170190911801039709F035
:100460008CC082E090E09093200180931F0183E094
:1004700090E090932201809321017FC08091170129
:1004800090911801892BA9F486E090E090932001C7
:1004900080931F0182E090E09093220180932101DC
:1004A00010921C0110921B0110921E0110921D014E
:1004B00066C080911701909118010197D9F480913D
:1004C0001F0190912001039751F480911B0190919D
:1004D0001C01019690931C0180931B0150C0109247
:1004E000200110921F0183E090E0909322018093FD
:1004F000210145C080911701909118010297E9F4FC
:1005000080911F0190912001049751F480911D0169
:1005100090911E01019690931E0180931D012FC0A2
:1005200081E090E09093200180931F0183E090E0B0
:10053000909322018093210122C080911701909114
:1005400018010397E1F480911F0190912001059714
:10055000B1F082E090E09093200180931F0183E04E
:1005600090E0909322018093210109C01092220112
:100570001092210105C0000003C0000001C000006E
:1005800080912101909122018130910559F08130B3
:10059000910508F4A6C08230910509F4A4C0039720
:1005A00081F0A2C087E090E090931A018093190136
:1005B00088E290E02091190130911A01FC0120831A
:1005C00093C080911B0190911C010A97D1F48091F6
:1005D000190190911A010997A0F410921C01109230
:1005E0001B018091190190911A01019690931A01B3
:1005F0008093190183E090E09093200180931F0184
:100600001FC080911D0190911E010A97C9F480912D
:10061000190190911A01892B99F010921E011092E4
:100620001D018091190190911A01019790931A016F
:100630008093190184E090E09093200180931F0142
:1006400080911F0190912001892BB1F480911901B3
:1006500090911A010997E0F58091190190911A0182
:10066000019690931A018093190183E090E0909392
:10067000200180931F012CC080911F0190912001C7
:100680000197B1F48091190190911A01892B01F120
:100690008091190190911A01019790931A0180930A
:1006A000190184E090E09093200180931F0110C015
:1006B00080911F0190912001029751F410921A012C
:1006C0001092190185E090E09093200180931F0122
:1006D00088E290E02091190130911A01FC012083F9
:1006E00003C0000001C000000000DF91CF91089519
:1006F000CF93DF93CDB7DEB781E290E0FC011082AB
:1007000082E290E02FEFFC01208387E290E02FEF60
:10071000FC01208388E290E0FC01108264E670E036
:1007200080E090E00E9440010E949000109222011F
:100730001092210188E290E0FC0110820E946E017B
:100740000000809112018823E1F310921201F6CF8C
:04075000F894FFCF4B
:10075400000000020000000067000000000001002B
:02076400000093
:00000001FF
